:1000000003308A00C12B0000FF00030E8301A10012
:100010000A08A0008A010408A2007708A300780853
:10002000A4007908A5007A08A600831383128B1D0B
:100030001B280B1832288C308400801D21288C1935
:100040003528220884002308F7002408F800250832
:10005000F9002608FA0020088A00210E8300FF0E0E
:100060007F0E09008A110A1238288A110A125928AB
:1000700083168C118312B001061AB00A31083002BF
:10008000031950280030861A0130300203194C2819
:10009000AE0A0319AF0A50282E080319AF03AE03A6
:1000A0003008B10083168C1583120B108A110A12C6
:1000B00021288316941A64288312D9018316141DEB
:1000C00064288312D917831683125908D90ACC00E1
:1000D000CC0803196F284C08803C031D74281413A6
:1000E0008C1D7028130814164C087F3C03188D28AB
:1000F00080304C02513E840083130008EF006F08EB
:10010000F0007008930014168C11831614188628BA
:10011000F8018312141AF80A9B28CC0803199B28AB
:1001200001304C02483E8400831314138C1D962822
:100130001308141680008C118A110A1221288E309F
:10014000F7005F08F8005E08F900FA01DF1FAD282C
:10015000F809F909F90A0319F80AF808031DBA2879
:100160007908F800F9010830F702F808031DBA28E9
:10017000F701C3280310F81BC128F90DF80DF70388
:10018000BA28DF1FF81308005E0803198929EA005E
:10019000620803198929EA02031CD3287F30EA0781
:1001A00003188929D9288130EA02031C89290319F7
:1001B00089296A08F700F801F901FA01E9015F08E5
:1001C000E800E8176008E7006108E6001930EA0077
:1001D0006508E6020318FC280130E7020318FC2832
:1001E000E8020318FC28E9020318FC28E90AE80AD7
:1001F000E70A6508E6072E296408E70203181729AD
:100200000130E80203181729E90203181729E90A3F
:10021000E80A6408E7076508E607031C2E29E70AD1
:10022000031D2E29E80A031D2E29E90A2E29630839
:100230008038E80203182D290130E90203182D291E
:10024000E90A63088038E8076408E707031C0B29FC
:10025000E80A031D0B29E90A0B297A14EA0B312954
:100260003C290310E60DE70DE80DE90D0310FA0D2A
:10027000F90DF80DEB0DE8286B1C44290310F80C60
:10028000F90CFA0CEB0C4729F70303198929EB1B2E
:1002900070290310E60DE70DE80DE90D6508E6028B
:1002A00003185C290130E70203185C29E8020318EF
:1002B0005C29E902031C7F296408E7020318672907
:1002C0000130E80203186729E902031C7F2963084B
:1002D0008038E802031870290130E902031C7F29E5
:1002E000FA0A031D7F29F90A031D7F29F80A031D55
:1002F0007F29F70A03198929F80CF90CFA0C5F0811
:10030000EA006308EA06EA1F8729F8178D29F8131F
:100310008D29F701F801F901FA01080062080319B3
:10032000FE29EA0066080319FE29EA0703189F2937
:100330007F30EA02031CFE290319FE29A32981301C
:10034000EA070318FE296A08F700F801F901FA0123
:100350006308EE00EE176408ED006508EC00183045
:10036000EA00EB016C1CCC296908FA07031CBE29C2
:10037000F90A031DBE29F80A0319EB176808F907E3
:10038000031CC529F80A0319EB176708E400E417F2
:100390006408F8070318EB17EB0DF80CF90CFA0CCE
:1003A000EE0CED0CEC0C0310EA0BB1290130F70751
:1003B0000318FE29F81BE329EE0DFA0DF90DF80DCF
:1003C000F7030319FE29EE1FF429FA0A031DF42985
:1003D000F90A031DF429F80A031DF429F80CF90C95
:1003E000FA0CF70A0319FE296308EB006708EB060D
:1003F000EB1FFC29F817022AF813022AF701F8016B
:10040000F901FA01080080308318E306E801E901E8
:100410005F08E7006308E7065E080319F32AE600B1
:10042000F70062080319FC2AE6020319982A031C44
:10043000562A6308EC00EC176408EB006508EA0034
:10044000E9010310EC0CEB0CEA0CE90CE60B202A9A
:10045000E71F2D2A6814102B68106610681661308B
:1004600084008313252B6812E71B402A661C4B2A45
:10047000EC0CEB0CEA0CE90CF70A03190B2B4B2ADA
:10048000EC1B4E2A0310E90DEA0DEB0DEC0DF70302
:1004900003190B2B402A6817B82A68135F08E70076
:1004A000E71F542AEC17042BEC13042B6208E60018
:1004B000F7005E08E6025F08EC00EC176008EB004E
:1004C0006108EA00E9010310EC0CEB0CEA0CE90C02
:1004D000E60B622AE71F6F2AE814102BE81066105B
:1004E000E816653084008313252BE812E71B822A67
:1004F000661C8D2AEC0CEB0CEA0CE90CF70A0319CC
:100500000B2B8D2AEC1B902A0310E90DEA0DEB0D45
:10051000EC0DF70303190B2B822AE817B82AE8130E
:100520006308E700E71F962AEC17042BEC13042B53
:100530006308EC00EC176408EB006508EA00E71FAD
:10054000A52AEC136815102B6811E90166106130BB
:1005500084008313252BE71BCE2A5F08E700661C67
:10056000B82AEC0CEB0CEA0CE90CF70A03190B2B7C
:10057000E91FC92AEA0A031DC92AEB0A031DC92A71
:10058000EC0A031DC92AEC0CEB0CEA0CF70A031960
:100590000B2B681B4D2AE81B8F2AED2A8030EC06B6
:1005A000EC1FD62A102B6308E700E32A5F08E70058
:1005B000EC08031DE32AEB08031DE32AEA08031DE8
:1005C000E32AF701042BEC1BED2A0310E90DEA0DD9
:1005D000EB0DEC0DF70BE32A0B2BE71FF12AEC17C1
:1005E000042BEC13042B6208F7006308EC0064088A
:1005F000EB006508EA00042B5E08F7005F08EC00DA
:100600006008EB006108EA006C08F8006B08F9006C
:100610006A08FA00432BF701F801F901FA01432BAC
:10062000E901EA09EB09EC09E909E90A031D1E2BB6
:10063000EA0A031D1E2BEB0A0319EC0A68182C2A80
:10064000E8186E2A6819A42AD32A0008EA07031CAE
:100650002F2BEB0A031D2F2BEC0A031966148403BE
:100660000008EB07031C372BEC0A031966148403FC
:100670000008801F803AEC0703186614681A332AB2
:10068000E81A752AAB2A08008E30F7005B08F800DC
:100690005A08F900FA01F808031D582B7908F800E8
:1006A000F9010830F702F808031D582BF701602BF9
:1006B0000310F81B5F2BF90DF80DF703582BF813F7
:1006C0008A110A12E22C8E30F7005A08F7025B08F2
:1006D000F9005C08F800F917F70803197A2B0310E2
:1006E000F908031D762BF80803197A2BF90CF80C7E
:1006F000F70B6F2BDB1F812BF809F909F80A031997
:10070000F90A08005B08E2005F08E206E21F8D2B91
:1007100003110310DB1B0314C02B5B08E2005E080F
:10072000E3005A08E30203199B2BE21FC02B0308C6
:10073000013A8300C02B5F08E3005B08E302031962
:10074000A72BE21FC02B0308013A8300C02B6008CF
:10075000E3005C08E3020319B32BE21FC02B03087C
:10076000013A8300C02B6108E3005D08E30203192E
:10077000BF2BE21FC02B0308013A8300C02B0310DC
:10078000080003081F3983000C3083169900A2303B
:100790009800903083129800FF30A700A715270813
:1007A00083168700831227162708831687002830B0
:1007B0009300363083129400831611148312A9011A
:1007C000A801AD014030AC000330AB008C30AA0072
:1007D000AF01AE01B901B801B701B601BB01BA0161
:1007E000C301C201C101C001C701C601C501C401E5
:1007F000D601D501D801D7010330D90083161F14C3
:100800009F141F159F1107309C0083138113C03064
:1008100083128B040B1083168C150030F8000638F9
:1008200083129200FF3083169200003088008810F7
:1008300083128814831608108312081027112708C2
:1008400083168700831207110C309700A710270822
:1008500083168700831287100C309D0095011708BE
:10086000CF3997009B011D08CF399D005508D20054
:100870005608D1005708D4005808D300861F442CCE
:1008800014309B0095003E2CFF30A900DD30A800FD
:100890008B15CE014808CD004D08CE00CD01CD010D
:1008A0004908CD044E08BB004D08BA00D0014A08E3
:1008B000CF004F08D000CF01CF014B08CF042F0845
:1008C000DF002E08DE009F207A08E1007908E000B2
:1008D0007808DF007708DE002D08E5002C08E4002A
:1008E0002B08E3002A08E200C420D030E5000F30D6
:1008F000E4004930E3008230E2007A08E900790838
:10090000E8007808E7007708E6008E217A08B90049
:100910007908B8007808B7007708B600E501E40167
:100920003430E3008630E2003908E9003808E80096
:100930003708E7003608E6008E217A08DD007908DE
:10094000DC007808DB007708DA007A08E100790833
:10095000E0007808DF007708DE00D030E5000F30D7
:10096000E4004930E3008030E200C4207A08DD0072
:100970007908DC007808DB007708DA002908DF0056
:100980002808DE009F2083105D08E1005C08E0007D
:100990005B08DF005A08DE007A08E5007908E40009
:1009A0007808E3007708E20003227A08B9007908A2
:1009B000B8007808B7007708B6003B08DB003A08B3
:1009C000DA00442B83147A08E1007908E000780803
:1009D000DF007708DE003908E5003808E400370852
:1009E000E3003608E20003227A08DD007908DC0023
:1009F0007808DB007708DA0083147A08E1007908C8
:100A0000E0007808DF007708DE00E501E4017A30D5
:100A1000E3008730E20003227A08BF007908BE00B5
:100A20007808BD007708BC003908DD003808DC0014
:100A30003708DB003608DA0063237908D800780825
:100A4000D7005508D2005608D1005708D4005808DE
:100A5000D3003F08E5003E08E4003D08E3003C0801
:100A6000E200E901E801E701E6018E218310430875
:100A7000E1004208E0004108DF004008DE007A089B
:100A8000E5007908E4007808E3007708E200032233
:100A90007A08C3007908C2007808C1007708C0004E
:100AA000DD01DC017A30DB008830DA004308E10048
:100AB0004208E0004108DF004008DE008223031CFA
:100AC000672DC301C2017A30C1008830C0004308DD
:100AD000DD004208DC004108DB004008DA00E101EB
:100AE000E001FA30DF008830DE008223031C7E2D17
:100AF000C301C201FA30C1008830C000E501E40141
:100B00002030E3008330E2003F08E9003E08E800BF
:100B10003D08E7003C08E6008E217A08DD007908F0
:100B2000DC007808DB007708DA000A30E500D7300F
:100B3000E4002330E3007830E2004308E900420893
:100B4000E8004108E7004008E6008E2183105D08B8
:100B5000E1005C08E0005B08DF005A08DE007A086C
:100B6000E5007908E4007808E3007708E200032252
:100B70007A08DD007908DC007808DB007708DA0005
:100B800083144708E1004608E0004508DF004408F8
:100B9000DE003F08E5003E08E4003D08E3003C08B5
:100BA000E20003227A08E1007908E0007808DF001B
:100BB0007708DE007A08E5007908E4007808E300A9
:100BC0007708E200E901E8014830E7008530E600F7
:100BD0008E217A08E1007908E0007808DF007708C4
:100BE000DE007A08E5007908E4007808E300770879
:100BF000E200E901E801E701E6018E2183105D08CA
:100C0000E1005C08E0005B08DF005A08DE007A08BB
:100C1000E5007908E4007808E3007708E2000322A1
:100C20007A08B5007908B4007808B3007708B200F4
:100C30003F08C7003E08C6003D08C5003C08C40088
:100C40003B08D6003A08D500DD01DC017F30DB002F
:100C50008630DA003508E1003408E0003308DF00B0
:100C60003208DE008223031C3B2EB501B4017F3025
:100C7000B3008630B2003508DD003408DC003308EC
:100C8000DB003208DA00E101E001FF30DF008630EE
:100C9000DE008223031C522EB501B401FF30B300E5
:100CA0008630B200DD01DC01DB01DA013508E1004C
:100CB0003408E0003308DF003208DE008223031C22
:100CC000A12E83160810831208148316881083122D
:100CD00088103508E1003408E0003308DF003208EE
:100CE000DE009A30E5009930E4001930E3007F30EF
:100CF000E200C4207A08DD007908DC007808DB0017
:100D00007708DA006323780895003508E100340895
:100D1000E0003308DF003208DE009A30E500993049
:100D2000E4001930E3007F30E200C4207A08DD00DF
:100D30007908DC007808DB007708DA00632378089C
:100D40009B003508DD003408DC003308DB00320886
:100D5000DA00E101E001DF01DE018223031C072F3D
:100D6000E501E4018030E3007F30E2003508E9006E
:100D70003408E8003308E7003208E6008E217A08DC
:100D8000B5007908B4007808B3007708B20083167C
:100D900088108312881483160810831208103508EF
:100DA000E1003408E0003308DF003208DE009A304A
:100DB000E5009930E4001930E3007F30E200C42000
:100DC0007A08DD007908DC007808DB007708DA00B3
:100DD000632378089B003508E1003408E0003308FD
:100DE000DF003208DE009A30E5009930E400193067
:100DF000E3007F30E200C4207A08DD007908DC00DF
:100E00007808DB007708DA00632378089500492C1E
:020E100063007D
:02400E00323F3F
:00000001FF
;PIC16F877A
;CRC=20A3  CREATED="30-May-19 14:23"
