:1000000003308A00C12B0000FF00030E8301A10012
:100010000A08A0008A010408A2007708A300780853
:10002000A4007908A5007A08A600831383128B1D0B
:100030001B280B1832288C308400801D21288C1935
:100040003528220884002308F7002408F800250832
:10005000F9002608FA0020088A00210E8300FF0E0E
:100060007F0E09008A110A1238288A110A125928AB
:1000700083168C118312B001061AB00A31083002BF
:10008000031950280030861A0130300203194C2819
:10009000AE0A0319AF0A50282E080319AF03AE03A6
:1000A0003008B10083168C1583120B108A110A12C6
:1000B00021288316941A64288312DB018316141DE9
:1000C00064288312DB17831683125B08DB0ACE00D9
:1000D000CE0803196F284E08803C031D74281413A2
:1000E0008C1D7028130814164E087F3C03188D28A9
:1000F00080304E02533E840083130008F1007108E3
:10010000F2007208930014168C11831614188628B6
:10011000F8018312141AF80A9B28CE0803199B28A9
:1001200001304E024A3E8400831314138C1D96281E
:100130001308141680008C118A110A1221288E309F
:10014000F7006108F8006008F900FA01E11FAD2826
:10015000F809F909F90A0319F80AF808031DBA2879
:100160007908F800F9010830F702F808031DBA28E9
:10017000F701C3280310F81BC128F90DF80DF70388
:10018000BA28E11FF8130800600803198929EC0058
:10019000640803198929EC02031CD3287F30EC077B
:1001A00003188929D9288130EC02031C89290319F5
:1001B00089296C08F700F801F901FA01EB016108DF
:1001C000EA00EA176208E9006308E8001930EC0069
:1001D0006708E8020318FC280130E9020318FC282C
:1001E000EA020318FC28EB020318FC28EB0AEA0ACF
:1001F000E90A6708E8072E296608E90203181729A3
:100200000130EA0203181729EB0203181729EB0A39
:10021000EA0A6608E9076708E807031C2E29E90AC5
:10022000031D2E29EA0A031D2E29EB0A2E29650833
:100230008038EA0203182D290130EB0203182D291A
:10024000EB0A65088038EA076608E907031C0B29F2
:10025000EA0A031D0B29EB0A0B297A14EC0B31294E
:100260003C290310E80DE90DEA0DEB0D0310FA0D22
:10027000F90DF80DED0DE8286D1C44290310F80C5C
:10028000F90CFA0CED0C4729F70303198929ED1B2A
:1002900070290310E80DE90DEA0DEB0D6708E8027F
:1002A00003185C290130E90203185C29EA020318EB
:1002B0005C29EB02031C7F296608E9020318672901
:1002C0000130EA0203186729EB02031C7F29650845
:1002D0008038EA02031870290130EB02031C7F29E1
:1002E000FA0A031D7F29F90A031D7F29F80A031D55
:1002F0007F29F70A03198929F80CF90CFA0C61080F
:10030000EC006508EC06EC1F8729F8178D29F81317
:100310008D29F701F801F901FA01080064080319B1
:10032000FE29EC0068080319FE29EC0703189F2931
:100330007F30EC02031CFE290319FE29A32981301A
:10034000EC070318FE296C08F700F801F901FA011F
:100350006508F000F0176608EF006708EE00183037
:10036000EC00ED016E1CCC296B08FA07031CBE29BA
:10037000F90A031DBE29F80A0319ED176A08F907DF
:10038000031CC529F80A0319ED176908E600E617EA
:100390006608F8070318ED17ED0DF80CF90CFA0CC8
:1003A000F00CEF0CEE0C0310EC0BB1290130F70749
:1003B0000318FE29F81BE329F00DFA0DF90DF80DCD
:1003C000F7030319FE29F01FF429FA0A031DF42983
:1003D000F90A031DF429F80A031DF429F80CF90C95
:1003E000FA0CF70A0319FE296508ED006908ED0605
:1003F000ED1FFC29F817022AF813022AF701F80169
:10040000F901FA01080080308318E506EA01EB01E2
:100410006108E9006508E90660080319F32AE800A5
:10042000F70064080319FC2AE8020319982A031C40
:10043000562A6508EE00EE176608ED006708EC0026
:10044000EB010310EE0CED0CEC0CEB0CE80B202A8E
:10045000E91F2D2A6A14102B6A1068106A1663307F
:1004600084008313252B6A12E91B402A681C4B2A3F
:10047000EE0CED0CEC0CEB0CF70A03190B2B4B2AD2
:10048000EE1B4E2A0310EB0DEC0DED0DEE0DF703F8
:1004900003190B2B402A6A17B82A6A136108E9006E
:1004A000E91F542AEE17042BEE13042B6408E8000E
:1004B000F7006008E8026108EE00EE176208ED0040
:1004C0006308EC00EB010310EE0CED0CEC0CEB0CF4
:1004D000E80B622AE91F6F2AEA14102BEA10681051
:1004E000EA16673084008313252BEA12E91B822A5F
:1004F000681C8D2AEE0CED0CEC0CEB0CF70A0319C2
:100500000B2B8D2AEE1B902A0310EB0DEC0DED0D3D
:10051000EE0DF70303190B2B822AEA17B82AEA1308
:100520006508E900E91F962AEE17042BEE13042B49
:100530006508EE00EE176608ED006708EC00E91F9D
:10054000A52AEE136A15102B6A11EB0168106330AF
:1005500084008313252BE91BCE2A6108E900681C5F
:10056000B82AEE0CED0CEC0CEB0CF70A03190B2B74
:10057000EB1FC92AEC0A031DC92AED0A031DC92A6B
:10058000EE0A031DC92AEE0CED0CEC0CF70A031958
:100590000B2B6A1B4D2AEA1B8F2AED2A8030EE06B0
:1005A000EE1FD62A102B6508E900E32A6108E9004E
:1005B000EE08031DE32AED08031DE32AEC08031DE2
:1005C000E32AF701042BEE1BED2A0310EB0DEC0DD3
:1005D000ED0DEE0DF70BE32A0B2BE91FF12AEE17B9
:1005E000042BEE13042B6408F7006508EE00660880
:1005F000ED006708EC00042B6008F7006108EE00CE
:100600006208ED006308EC006E08F8006D08F90060
:100610006C08FA00432BF701F801F901FA01432BAA
:10062000EB01EC09ED09EE09EB09EB0A031D1E2BAA
:10063000EC0A031D1E2BED0A0319EE0A6A182C2A78
:10064000EA186E2A6A19A42AD32A0008EC07031CA8
:100650002F2BED0A031D2F2BEE0A031968148403B8
:100660000008ED07031C372BEE0A031968148403F6
:100670000008801F803AEE07031868146A1A332AAC
:10068000EA1A752AAB2A08008E30F7005D08F800D8
:100690005C08F900FA01F808031D582B7908F800E6
:1006A000F9010830F702F808031D582BF701602BF9
:1006B0000310F81B5F2BF90DF80DF703582BF813F7
:1006C0008A110A12EA2C8E30F7005C08F7025D08E6
:1006D000F9005E08F800F917F70803197A2B0310E0
:1006E000F908031D762BF80803197A2BF90CF80C7E
:1006F000F70B6F2BDD1F812BF809F909F80A031995
:10070000F90A08005D08E4006108E406E41F8D2B87
:1007100003110310DD1B0314C02B5D08E400600807
:10072000E5005C08E50203199B2BE41FC02B0308BE
:10073000013A8300C02B6108E5005D08E50203195A
:10074000A72BE41FC02B0308013A8300C02B6208CB
:10075000E5005E08E5020319B32BE41FC02B030874
:10076000013A8300C02B6308E5005F08E502031926
:10077000BF2BE41FC02B0308013A8300C02B0310DA
:10078000080003081F3983000C3083169900A2303B
:100790009800903083129800FF30A700A715270813
:1007A00083168700831227162708831687002A30AE
:1007B0009300363083129400831611148312A9011A
:1007C000A801CD30AD000C30AC002B30AB00873031
:1007D000AA00AF01AE01BB01BA01B901B801BD0168
:1007E000BC01C501C401C301C201C901C801C701DF
:1007F000C601D801D701DA01D9010330DB00831625
:100800001F149F141F159F1107309C008313811321
:10081000C03083128B040B1083168C150030F80047
:10082000063883129200FF30831692000030880051
:100830008810831288148316081083120810271159
:10084000270883168700831207110C309700A71022
:10085000270883168700831287100C309D009501AE
:100860001708CF3997009B011D08CF399D00570805
:10087000D4005808D3005908D6005A08D500861F5E
:100880004C2C323095001708CF39970032309B003E
:100890001D08CF399D003F2CFF30A9005030A80023
:1008A0008B15D0014A08CF004F08D000CF01CF01EF
:1008B0004B08CF045008BD004F08BC00D2014C08C3
:1008C000D1005108D200D101D1014D08D1042F0827
:1008D000E1002E08E0009F207A08E3007908E2009A
:1008E0007808E1007708E0002D08E7002C08E60012
:1008F0002B08E5002A08E400C420D030E7000F30C0
:10090000E6004930E5008030E4007A08EB00790821
:10091000EA007808E9007708E8008E217A08BB0031
:100920007908BA007808B9007708B800E701E6014D
:100930003430E5008630E4003B08EB003A08EA007A
:100940003908E9003808E8008E217A08DF007908C4
:10095000DE007808DD007708DC007A08E30079081B
:10096000E2007808E1007708E000D030E7000F30BF
:10097000E6004930E5008030E400C4207A08DF005A
:100980007908DE007808DD007708DC002908E1003E
:100990002808E0009F2083105F08E3005E08E20063
:1009A0005D08E1005C08E0007A08E7007908E600ED
:1009B0007808E5007708E40003227A08BB0079088C
:1009C000BA007808B9007708B8003D08DD003C0897
:1009D000DC00442B83147A08E3007908E2007808ED
:1009E000E1007708E0003B08E7003A08E600390834
:1009F000E5003808E40003227A08DF007908DE0009
:100A00007808DD007708DC0083147A08E3007908B1
:100A1000E2007808E1007708E000E701E6017A30BB
:100A2000E5008730E40003227A08C1007908C0009D
:100A30007808BF007708BE004108DF004008DE00EC
:100A40003F08DD003E08DC0063237908D800780801
:100A5000D7003B08DF003A08DE003908DD0038081F
:100A6000DC0063237908DA007808D9005708D4003D
:100A70005808D3005908D6005A08D50083104508F5
:100A8000E3004408E2004308E1004208E0004108B6
:100A9000E7004008E6003F08E5003E08E4000322C6
:100AA0007A08C5007908C4007808C3007708C20036
:100AB000DF01DE017A30DD008830DC004508E3002C
:100AC0004408E2004308E1004208E0008223031CDE
:100AD0006F2DC501C4017A30C3008830C2004508BB
:100AE000DF004408DE004308DD004208DC00E301CB
:100AF000E201FA30E1008830E0008223031C862DF9
:100B0000C501C401FA30C3008830C200E701E60124
:100B10006830E5008330E4004108EB004008EA005B
:100B20003F08E9003E08E8008E217A08DF007908D6
:100B3000DE007808DD007708DC000A30E700D730F7
:100B4000E6002330E5007830E4004508EB00440877
:100B5000EA004308E9004208E8008E217A08E30031
:100B60007908E2007808E1007708E0007A08E700F9
:100B70007908E6007808E5007708E400CD30EB005E
:100B8000CC30EA004C30E9007A30E8008E21831046
:100B90005F08E3005E08E2005D08E1005C08E00039
:100BA0007A08E7007908E6007808E5007708E400AD
:100BB00003227A08DF007908DE007808DD00770874
:100BC000DC0083144908E3004808E2004708E1001C
:100BD0004608E0004108E7004008E6003F08E5005D
:100BE0003E08E40003227A08E3007908E20078086E
:100BF000E1007708E0007A08E7007908E600780865
:100C0000E5007708E400EB01EA014830E9008530AF
:100C1000E8008E217A08E3007908E2007808E10014
:100C20007708E0007A08E7007908E6007808E50030
:100C30007708E400EB01EA01E901E8018E21831065
:100C40005F08E3005E08E2005D08E1005C08E00088
:100C50007A08E7007908E6007808E5007708E400FC
:100C600003227A08B5007908B4007808B300770841
:100C7000B2004108C9004008C8003F08C7003E084C
:100C8000C6003708D8003608D700DF01C030DE00C4
:100C90007F30DD008830DC003508E3003408E200F6
:100CA0003308E1003208E0008223031C5E2EB50108
:100CB000C030B4007F30B3008830B2003508DF00A8
:100CC0003408DE003308DD003208DC00E301C03008
:100CD000E200FF30E1008830E0008223031C772E21
:100CE000B501C030B400FF30B3008830B200DF017E
:100CF000DE01DD01DC013508E3003408E2003308E1
:100D0000E1003208E0008223031CD12E3508E30005
:100D10003408E2003308E1003208E0006630E70002
:100D2000E6002630E5007F30E400C4207A08DF00CA
:100D30007908DE007808DD007708DC006323790895
:100D4000B7007808B60083160810831208148316BB
:100D50008810831288103708F9003608F800F90C5B
:100D6000F80CF90CF80CF90C78089B00F90C790CCC
:100D70003039F7001D08CF3977049D003708F90096
:100D80003608F800F90CF80CF90CF80CF90C780896
:100D90009500F90C790C3039F7001708CF39770432
:100DA00097003508DF003408DE003308DD00320824
:100DB000DC00E301E201E101E0018223031C422F98
:100DC000E701E6018030E5007F30E4003508EB0004
:100DD0003408EA003308E9003208E8008E217A0876
:100DE000DF007908DE007808DD007708DC007A088B
:100DF000E3007908E2007808E1007708E000663057
:100E0000E700E6002630E5007F30E400C4207A08E1
:100E1000DF007908DE007808DD007708DC00632356
:100E20007908B7007808B6008316881083128814F2
:100E300083160810831208103708F9003608F800E6
:100E4000F90CF80CF90CF80CF90C78089500F90C71
:100E5000790C3039F7001708CF3977049700370835
:100E6000F9003608F800F90CF80CF90CF80CF90C3C
:100E700078089B00F90C790C3039F7001D08CF3940
:080E800077049D00512C630072
:02400E00323F3F
:00000001FF
;PIC16F877A
;CRC=79C3  CREATED="31-May-19 02:42"
